:020000040800F2
:100000005808002089010008E5010008E501000802
:10001000E5010008E5010008E50100080000000016
:10002000000000000000000000000000E5010008E2
:10003000E501000800000000E5010008E5010008F6
:10004000E5010008E5010008E5010008E5010008F8
:10005000E5010008E5010008E5010008E5010008E8
:10006000E5010008E5010008E5010008E5010008D8
:10007000E5010008E5010008E5010008E5010008C8
:10008000E5010008E5010008E5010008E5010008B8
:10009000E5010008E5010008E5010008E5010008A8
:1000A000E5010008E5010008E5010008E501000898
:1000B000E5010008E5010008E5010008E501000888
:1000C000E5010008E5010008E5010008E501000878
:1000D000E5010008E5010008E5010008E501000868
:1000E000E5010008E5010008E5010008E501000858
:1000F000E5010008E5010008E5010008E501000848
:10010000E5010008E5010008E5010008E501000837
:10011000E5010008E5010008E5010008E501000827
:10012000E5010008E5010008E5010008E501000817
:10013000E5010008E5010008E5010008E501000807
:10014000E5010008E5010008E5010008E5010008F7
:10015000E5010008E5010008E5010008E5010008E7
:10016000E5010008E5010008E5010008E5010008D7
:10017000E5010008E5010008E5010008E5010008C7
:10018000E5010008E501000880B582B000AF104B22
:100190007B60104B3B6007E03B681A1D3A607A6851
:1001A000111D796012681A603B680B4A9342F3D3C1
:1001B0000A480B494FF000028842B8BF40F8042BB0
:1001C000FADB00F031F800BF0837BD4680BD00BF44
:1001D0002C150008000000203C0000203C000020FE
:1001E0005400002080B400AFFEE700BF80B485B0AB
:1001F00000AF78600023FB600DE00023BB6002E0ED
:10020000BB680133BB60BB6840F2FA429342F7D946
:10021000FB680133FB60FA687B689A42EDD300BF4C
:100220001437BD4680BC704780B582B000AF00F087
:100230006DF900F007FA00F023FA00F03FFA00F041
:100240005BFA00F0CBFA00F073F800F097F800F0DA
:10025000BBF800F0DDF800F02DFC134B1A68134BCF
:100260001B681946104600F0A5FA00F0F7F8786010
:100270000021002000F004FC0D4800F0EDFB786840
:1002800000F080FC00F016F938600021072000F033
:10029000F7FB084800F0E0FB786800F073FC4FF4CF
:1002A0007A70FFF7A3FFD8E7200000202400002089
:1002B000241500082815000880B483B000AF7860CA
:1002C0000B46FB70FB78002B06D00949084B1A6BD4
:1002D0007B6813430B6306E00549054B1A6B7B688B
:1002E000DB4313400B6300BF0C37BD4680BC704737
:1002F0000038024080B483B000AF78600B46FB70DA
:10030000FB78002B06D00949084B1A6C7B68134315
:100310000B6406E00549054B1A6C7B68DB43134010
:100320000B6400BF0C37BD4680BC704700380240EC
:1003300080B582B000AF01210220FFF7BDFF4FF46E
:10034000C0733B6000233B710123FB7100237B7171
:100350003B461946074800F0B5FC4FF400610548DC
:1003600000F03EFD03461A46034B1A6000BF0837F3
:10037000BD4680BD000402404000002080B582B030
:1003800000AF01210220FFF797FF4FF4C0533B60FD
:1003900000233B710123FB7100237B713B4619460F
:1003A000074800F08FFC4FF48071054800F018FDFD
:1003B00003461A46034B1A6000BF0837BD4680BD8E
:1003C000000402403C00002080B582B000AF012153
:1003D0000220FFF771FF30233B6000233B710123B4
:1003E000FB7100237B713B461946074800F06AFC0D
:1003F0001021054800F0F4FC03461A46034B1A602E
:1004000000BF0837BD4680BD000402404800002000
:1004100080B582B000AF01210420FFF74DFF4FF4FB
:1004200040733B6000233B710123FB7100237B7110
:100430003B461946074800F045FC4FF480710548DB
:1004400000F0CEFC03461A46034B1A6000BF083783
:10045000BD4680BD000802404400002080B582B047
:1004600000AF4FF40061114800F0BAFC03463B6056
:100470000F4B1B683A689A4210D04FF480510B48DA
:1004800000F0AEFC03461A463B689A4203D07B68F4
:1004900001337B6002E07B68013B7B60044A3B6880
:1004A00013607B6818460837BD4680BD00040240D3
:1004B0004000002080B582B000AF4FF48071114839
:1004C00000F08EFC03463B600F4B1B683A689A4273
:1004D0000FD080210B4800F083FC03461A463B688E
:1004E0009A4203D07B6801337B6002E07B68013B6A
:1004F0007B60054A3B6813607B6818460837BD4639
:1005000080BD00BF000402403C00002080B58CB0DC
:1005100000AF01210420FFF7EDFE01210820FFF7C5
:10052000CBFE01210220FFF7C7FE4FF470437B6032
:1005300002233B7200237B720023BB720023FB72F9
:100540003B1D19463B4800F0BDFB02220C213948F7
:1005500000F094FC02220D21364800F08FFC0222AC
:100560000E21344800F08AFC02220F21314800F0AD
:1005700085FC0023FB85304B1B68304AA2FB03231C
:100580001B0E9BB2013BFB8564237B62FB8D3B848E
:1005900000233B8500237B8407F12003194628486C
:1005A00000F0B4FC6023BB810123FB8100237B614D
:1005B00000233B8307F10C031946214800F050FD4E
:1005C00008211F4800F03AFF0123FB8100237B61D3
:1005D00007F10C0319461A4800F0BCFD0821184821
:1005E00000F048FF0123FB8100237B6107F10C032E
:1005F0001946134800F036FE0821114800F058FF54
:100600000123FB8100237B6107F10C0319460C4891
:1006100000F0AEFE08210A4800F066FF01210848FC
:1006200000F0DEFC0121064800F0FAFC00BF303784
:10063000BD4680BD000C02402800002029D942663A
:100640000008004080B582B000AF01210820FFF70C
:1006500033FE4FF480733B600023BB7101233B7179
:100660000023FB7100237B713B461946034800F0D1
:1006700029FB00BF0837BD4680BD00BF000C02400B
:1006800080B582B000AF01210820FFF715FE4FF4BE
:1006900000733B600023BB7101233B710023FB719E
:1006A00000237B713B461946034800F00BFB00BF5B
:1006B0000837BD4680BD00BF000C024080B582B047
:1006C00000AF01210820FFF7F7FD4FF480633B6086
:1006D0000023BB7101233B710023FB7100237B715D
:1006E0003B461946034800F0EDFA00BF0837BD4607
:1006F00080BD00BF000C024080B582B000AF012178
:100700000820FFF7D9FD4FF400633B600023BB7165
:1007100001233B710023FB7100237B713B4619468B
:10072000034800F0CFFA00BF0837BD4680BD00BFC8
:10073000000C024080B582B000AF78604FF4807149
:10074000044800F075FB044A7B68536300BF083718
:10075000BD4680BD000C02400008004080B582B05C
:1007600000AF78604FF40071044800F053FB044A76
:100770007B68936300BF0837BD4680BD000C024014
:100780000008004080B400AF034B0022DA6300BFD2
:10079000BD4680BC704700BF0008004080B400AF79
:1007A000034B00221A6400BFBD4680BC704700BFE7
:1007B0000008004080B582B000AF7860396078688A
:1007C000FFF7B8FF3868FFF7C9FFFFF7DBFFFFF758
:1007D000E5FF00BF0837BD4680BD00BF80B584B0CF
:1007E00000AF01210420FFF767FDFF23BB6000235A
:1007F000BB7300233B730023FB7300237B7307F160
:10080000080319460C4800F05DFA01211020FFF79B
:1008100053FDFF233B600023BB7100233B7100238A
:10082000FB7100237B713B461946044800F04AFAED
:1008300000BF1037BD4680BD0008024000100240D6
:1008400080B582B000AF0346FB7101221021184829
:1008500000F0FCFAFB7903F00103DBB21A46022137
:10086000134800F0F3FAFB7903F00203DBB21A46F7
:1008700008210F4800F0EAFAFB7903F00403DBB229
:100880001A4620210A4800F0E1FAFB7903F0080338
:10089000DBB21A468021064800F0D8FA0022102167
:1008A000034800F0D3FA00BF0837BD4680BD00BF43
:1008B000000C024080B582B000AF0023FB71012222
:1008C00010211E4800F0C2FA02211C4800F088FAEC
:1008D00003465AB297F9073013435BB2FB71082104
:1008E000164800F07DFA03465B005AB297F90730CC
:1008F00013435BB2FB712021104800F071FA0346EC
:100900009B005AB297F9073013435BB2FB71802109
:100910000A4800F065FA0346DB005AB297F907303F
:1009200013435BB2FB7100221021044800F08EFAE1
:10093000FB7918460837BD4680BD00BF000C024059
:1009400080B582B000AF0023FB711A4BAA221A6057
:10095000184B00221A711749174800F0B3F9012209
:100960000421154800F072FA00220121124800F01B
:100970006DFAFFF79FFF03461B015AB297F9073044
:1009800013435BB2FB71FFF795FF03461A46FB79F1
:100990001343FB71074BAA221A60064B01221A71FE
:1009A0000449054800F08EF9FB7918460837BD4622
:1009B00080BD00BF4C000020000C024080B582B01A
:1009C00000AF0346FB7100220421104800F03EFAFC
:1009D000012201210D4800F039FAFB791B09DBB235
:1009E0001846FFF72DFFFB7903F00F03DBB2184623
:1009F000FFF726FF00BFFFF7A3FF03465BB2002B04
:100A0000F9DB00BF0837BD4680BD00BF000C0240C7
:100A100080B582B000AF0346FB71002205210D486E
:100A200000F014FAFB791B09DBB21846FFF708FF48
:100A3000FB7903F00F03DBB21846FFF701FF00BF9D
:100A4000FFF77EFF03465BB2002BF9DB00BF0837E0
:100A5000BD4680BD000C024080B582B000AF78601A
:100A600006E07B685A1C7A601B781846FFF7A6FFE1
:100A70007B681B78002BF4D100BF0837BD4680BDD2
:100A800080B582B000AF03460A46FB711346BB71C6
:100A9000BB799B01DAB2FB791344DBB25BB263F042
:100AA0007F035BB2DBB21846FFF7B2FF00BF083727
:100AB000BD4680BD80B582B000AF0023FB7100232E
:100AC0003B6001210820FFF7F7FB2B4BBF221A6088
:100AD000294B02225A71284B01221A7126492748B4
:100AE00000F0F0F81521254800F0A2F900233B6042
:100AF00002E03B6801333B603B68214A9342F8D9EE
:100B00000023FB7112E00320FFF79AFE00233B60F5
:100B100002E03B6801333B603B6847F22F5293424F
:100B2000F7D9FB79DBB20133DBB2FB71FB79DBB2C6
:100B3000022BE8D90220FFF783FE00233B6002E08E
:100B40003B6801333B603B6841F26F729342F7D9D7
:100B50002820FFF75DFF0820FFF75AFF0120FFF76D
:100B600057FF0620FFF754FF0C20FFF751FF00BF8F
:100B70000837BD4680BD00BF4C000020000C02407D
:100B8000DF93040080B584B000AF78607B68494A89
:100B900082FB03121213DB17D31ABB81BB89002B14
:100BA00008D0BB89DBB23033DBB21846FFF706FF53
:100BB0000123FB817B68404A82FB03129211DB1701
:100BC000D21A3E4B83FB02139910D317C91A0B4656
:100BD0009B000B445B00D11A0B46BB81BB89002BE9
:100BE00002D1FB89002B08D0BB89DBB23033DBB2EA
:100BF0001846FFF7E3FE0123FB817B68304A82FB46
:100C000003125211DB17D21A2C4B83FB02139910DB
:100C1000D317C91A0B469B000B445B00D11A0B4635
:100C2000BB81BB89002B02D1FB89002B08D0BB897B
:100C3000DBB23033DBB21846FFF7C0FE0123FB8185
:100C40007B681E4A82FB03129210DB17D21A1B4BE1
:100C500083FB02139910D317C91A0B469B000B4450
:100C60005B00D11A0B46BB81BB89002B02D1FB89EB
:100C7000002B06D0BB89DBB23033DBB21846FFF75E
:100C80009DFE7A680D4B83FB02139910D317C91A86
:100C90000B469B000B445B00D11A0B46BB81BB8902
:100CA000DBB23033DBB21846FFF788FE00BF1037E7
:100CB000BD4680BDAD8BDB68D34D6210676666664E
:100CC0001F85EB5180B487B000AF78603960002396
:100CD0007B6100233B610023FB6000237B6176E0A6
:100CE00001227B6902FA03F33B613B681A683B69A6
:100CF0001340FB60FA683B699A4265D17B681A68C9
:100D00007B695B00032101FA03F3DB431A407B6834
:100D10001A607B681A683B681B7919467B695B001F
:100D200001FA03F31A437B681A603B681B79012BB5
:100D300003D03B681B79022B2ED17B689A687B69B4
:100D40005B00032101FA03F3DB431A407B689A60DE
:100D50007B689A683B685B7919467B695B0001FA9E
:100D600003F31A437B689A607B685A687B699BB27D
:100D7000194601238B40DB431A407B685A607B682D
:100D80005B683A68927911467A6992B201FA02F286
:100D900092B21A437B685A607B68DA687B699BB2BF
:100DA0005B00032101FA03F3DB431A407B68DA603E
:100DB0007B68DA683B68DB7919467B695B0001FA7E
:100DC00003F31A437B68DA607B6901337B617B69DB
:100DD0000F2B85D900BF1C37BD4680BC704700BFB4
:100DE00080B485B000AF78600B467B800023FB7336
:100DF0007B681A697B881340002B02D00123FB73A8
:100E000001E00023FB73FB7B18461437BD4680BC12
:100E1000704700BF80B483B000AF78600B467B8022
:100E20007B687A881A8300BF0C37BD4680BC704748
:100E300080B483B000AF78600B467B807B687A8893
:100E40005A8300BF0C37BD4680BC704780B483B066
:100E500000AF78600B467B8013467B707B78002B5D
:100E600003D07B687A881A8302E07B687A885A8389
:100E700000BF0C37BD4680BC704700BF80B485B052
:100E800000AF78600B467B8013467B700023FB60CD
:100E90000023BB607A787B8803F007039B0002FA8B
:100EA00003F3FB607B88DB089BB218467B88DB087A
:100EB0009BB21A467B68083253F822207B8803F0E5
:100EC00007039B000F2101FA03F3DB4302EA03014E
:100ED0007B6800F1080243F822107B88DB089BB294
:100EE0001A467B68083253F82220FB681343BB6024
:100EF0007B88DB089BB21A467B680832B96843F8E6
:100F0000221000BF1437BD4680BC704780B485B046
:100F100000AF786039600023FB817B681B88FB8110
:100F20007B68284A934213D07B68274A93420FD0AC
:100F30007B68B3F1804F0BD07B68244A934207D083
:100F40007B68234A934203D07B68224A934208D1AC
:100F5000FB8923F07003FB813B685A88FB891343AC
:100F6000FB817B681C4A93420CD07B681B4A9342EE
:100F700008D0FB8923F44073FB813B681A89FB8905
:100F80001343FB817B68FA891A803B685A687B6847
:100F9000DA623B681A887B681A857B68094A934243
:100FA00003D07B68084A934204D13B689B7A9AB28B
:100FB0007B681A867B6801229A8200BF1437BD467F
:100FC00080BC704700000140000401400004004064
:100FD00000080040000C00400010004000140040D9
:100FE00080B483B000AF78600B46FB70FB78002BB9
:100FF00008D07B681B889BB243F080039AB27B6861
:101000001A8007E07B681B889BB223F080039AB2AA
:101010007B681A8000BF0C37BD4680BC704700BF9C
:1010200080B483B000AF78600B46FB70FB78002B78
:1010300008D07B681B889BB243F001039AB27B689F
:101040001A8007E07B681B889BB223F001039AB2E9
:101050007B681A8000BF0C37BD4680BC704700BF5C
:1010600080B485B000AF7860396000237B810023B5
:10107000FB810023BB817B681B8C9BB223F00103A7
:101080009AB27B681A847B681B8CFB817B689B8887
:10109000BB817B681B8B7B817B8923F070037B8109
:1010A0007B8923F003037B813B681A887B89134388
:1010B0007B81FB8923F00203FB813B689A89FB89D2
:1010C0001343FB813B685A88FB891343FB817B6890
:1010D0001E4A934203D07B681D4A934223D1FB8969
:1010E00023F00803FB813B68DA89FB891343FB810A
:1010F000FB8923F00403FB813B689A88FB89134337
:10110000FB81BB8923F48073BB81BB8923F400730B
:10111000BB813B681A8ABB891343BB813B685A8AEF
:10112000BB891343BB817B68BA899A807B687A89C3
:101130001A833B689A687B685A637B68FA891A84C9
:1011400000BF1437BD4680BC704700BF000001409F
:101150000004014080B485B000AF7860396000239E
:101160007B810023FB810023BB817B681B8C9BB2AE
:1011700023F010039AB27B681A847B681B8CFB8176
:101180007B689B88BB817B681B8B7B817B8923F47D
:10119000E0437B817B8923F440737B813B681B8820
:1011A0001B029AB27B8913437B81FB8923F02003C6
:1011B000FB813B689B891B019AB2FB891343FB812E
:1011C0003B685B881B019AB2FB891343FB817B68F8
:1011D000224A934203D07B68214A93422BD1FB8958
:1011E00023F08003FB813B68DB891B019AB2FB89FA
:1011F0001343FB81FB8923F04003FB813B689B8801
:101200001B019AB2FB891343FB81BB8923F48063E2
:10121000BB81BB8923F40063BB813B681B8A9B00B5
:101220009AB2BB891343BB813B685B8A9B009AB22D
:10123000BB891343BB817B68BA899A807B687A89B2
:101240001A833B689A687B689A637B68FA891A8478
:1012500000BF1437BD4680BC704700BF000001408E
:101260000004014080B485B000AF7860396000238D
:101270007B810023FB810023BB817B681B8C9BB29D
:1012800023F480739AB27B681A847B681B8CFB8181
:101290007B689B88BB817B689B8B7B817B8923F0F0
:1012A00070037B817B8923F003037B813B681A8871
:1012B0007B8913437B81FB8923F40073FB813B68AB
:1012C0009B891B029AB2FB891343FB813B685B88B5
:1012D0001B029AB2FB891343FB817B68224A93422B
:1012E00003D07B68214A93422BD1FB8923F400630E
:1012F000FB813B68DB891B029AB2FB891343FB81AC
:10130000FB8923F48063FB813B689B881B029AB2B4
:10131000FB891343FB81BB8923F48053BB81BB89C9
:1013200023F40053BB813B681B8A1B019AB2BB8923
:101330001343BB813B685B8A1B019AB2BB89134391
:10134000BB817B68BA899A807B687A899A833B687B
:101350009A687B68DA637B68FA891A8400BF14375D
:10136000BD4680BC704700BF000001400004014042
:1013700080B485B000AF786039600023BB81002362
:101380007B810023FB817B681B8C9BB223F4805301
:101390009AB27B681A847B681B8C7B817B689B88F4
:1013A000FB817B689B8BBB81BB8923F4E043BB81C2
:1013B000BB8923F44073BB813B681B881B029AB234
:1013C000BB891343BB817B8923F400537B813B683A
:1013D0009B891B039AB27B8913437B813B685B88A3
:1013E0001B039AB27B8913437B817B68114A93422A
:1013F00003D07B68104A93420AD1FB8923F48043CF
:10140000FB813B681B8A9B019AB2FB891343FB81DA
:101410007B68FA899A807B68BA899A833B689A6864
:101420007B681A647B687A891A8400BF1437BD46CA
:1014300080BC7047000001400004014080B485B0CA
:1014400000AF78600B467B800023FB817B681B8BA1
:10145000FB81FB8923F00803FB81FA897B88134316
:10146000FB817B68FA891A8300BF1437BD4680BCB4
:10147000704700BF80B485B000AF78600B467B80BA
:101480000023FB817B681B8BFB81FB8923F40063BA
:10149000FB817B881B029AB2FB891343FB817B682B
:1014A000FA891A8300BF1437BD4680BC704700BF5D
:1014B00080B485B000AF78600B467B800023FB8151
:1014C0007B689B8BFB81FB8923F00803FB81FA89F6
:1014D0007B881343FB817B68FA899A8300BF1437AA
:1014E000BD4680BC704700BF80B485B000AF786057
:1014F0000B467B800023FB817B689B8BFB81FB89F8
:1015000023F40063FB817B881B029AB2FB8913439F
:10151000FB817B68FA899A8300BF1437BD4680BC83
:0C152000704700BF45313D0045323D00E2
:10152C00640000006400000064000000640000001F
:10153C00640000006400000064000000640000000F
:10154C001400000014000000007A030A00000000E0
:0C155C000000000001020304060708095B
:0400000508000000EF
:00000001FF
